:0509BD0012090280FB9D
:0E09860048656C6C6F526F626F636F6E21007C
:0809AC000108010309FF09869F
:1008B5008F0C8D0D1209757F0A7E001208DD120955
:1008C50023AF0C7E001208DD120923AF0D7E001246
:0808D50008DD12092302099459
:10090200AB09AA0AA90B12095CFD6014AF08120810
:10091200B505087401250BF50BE4350AF50A80E0EC
:0109220022B2
:0F094200D2917F017E00120951D2907F017E0079
:0B095100EF1FAC0670011E4C70F62278
:10097500120942C29112094DC2907F017E000209FF
:010985005120
:0E099400C291120944D2917F017E00020951E6
:0A09A200C290C291120944C29022D3
:0809B500C290120942C2902217
:10092300E4FDD2907F01FE12095130910D0DEDD3FC
:0E093300946440F61209947F0122C2907F0066
:010941002293
:0208DD00AD0765
:1008DF00E4FBC290ED5480D394004004D291800287
:1008EF00C291ED25E0FD120944C29012094D0BBBD8
:0208FF0008E20D
:0109010022D3
:02088C00AD07B6
:10088E00E4FBFAC29012094DD290EA25E0FA3091BB
:10089E00010A12094D0BBB08EAED70051209B5806D
:0608AE00031209A2AF02D3
:0108B4002221
:03000000020800F3
:0C080000787FE4F6D8FD75810D020847F2
:10095C00BB010689828A83E0225002E722BBFE0299
:09096C00E32289828A83E49322CC
:10080C000209BDE493A3F8E493A34003F68001F23C
:10081C0008DFF48029E493A3F85407240CC8C333ED
:10082C00C4540F4420C8834004F456800146F6DFBC
:10083C00E4800B01020408102040809009ACE47E97
:10084C00019360BCA3FF543F30E509541FFEE493B1
:10085C00A360010ECF54C025E060A840B8E493A378
:10086C00FAE493A3F8E493A3C8C582C8CAC583CAA3
:10087C00F0A3C8C582C8CAC583CADFE9DEE780BE5B
:0109B4000042
:00000001FF
